{
  "contractName": "Create",
  "abi": [
    {
      "anonymous": false,
      "inputs": [
        {
          "indexed": true,
          "internalType": "address",
          "name": "sonAddress",
          "type": "address"
        },
        {
          "indexed": false,
          "internalType": "uint256",
          "name": "index",
          "type": "uint256"
        }
      ],
      "name": "ContractCreate",
      "type": "event"
    },
    {
      "inputs": [
        {
          "internalType": "uint256",
          "name": "arg",
          "type": "uint256"
        }
      ],
      "name": "createSon",
      "outputs": [],
      "stateMutability": "payable",
      "type": "function"
    },
    {
      "inputs": [
        {
          "internalType": "uint256",
          "name": "arg",
          "type": "uint256"
        }
      ],
      "name": "createSonEx",
      "outputs": [],
      "stateMutability": "payable",
      "type": "function"
    }
  ],
  "bytecode": "0x608060405260046040516100129061016d565b61001c9190610179565b604051809103906000f080158015610038573d6000803e3d6000fd5b50600080546001600160a01b0319166001600160a01b03929092169190911790556040516004906100689061016d565b6100729190610179565b604051809103906000f08015801561008e573d6000803e3d6000fd5b50600180546001600160a01b0319166001600160a01b03929092169190911790556040516004906100be9061016d565b6100c89190610179565b604051809103906000f0801580156100e4573d6000803e3d6000fd5b50600280546001600160a01b0319166001600160a01b03929092169190911790556040516004906101149061016d565b61011e9190610179565b604051809103906000f08015801561013a573d6000803e3d6000fd5b50600380546001600160a01b0319166001600160a01b039290921691909117905534801561016757600080fd5b50610182565b60dc8061058883390190565b90815260200190565b6103f7806101916000396000f3fe6080604052600436106100295760003560e01c806387c8bda51461002e578063e9e1f97a14610043575b600080fd5b61004161003c36600461025c565b610056565b005b61004161005136600461025c565b610189565b60005b818110156101855760008260405161007090610250565b61007a91906102b5565b604051809103906000f080158015610096573d6000803e3d6000fd5b509050806001600160a01b03167f727ee26d774ebf28a3214e26f755b4bc4485133b55c4c78fcea843563dffe6b3836040516100d291906102b5565b60405180910390a282816001600160a01b0316630c55699c6040518163ffffffff1660e01b815260040160206040518083038186803b15801561011457600080fd5b505afa158015610128573d6000803e3d6000fd5b505050506040513d601f19601f8201168201806040525081019061014c9190610274565b146101725760405162461bcd60e51b81526004016101699061028c565b60405180910390fd5b508061017d816102be565b915050610059565b5050565b60008160405161019890610250565b6101a291906102b5565b604051809103906000f0801580156101be573d6000803e3d6000fd5b50905081816001600160a01b0316630c55699c6040518163ffffffff1660e01b815260040160206040518083038186803b1580156101fb57600080fd5b505afa15801561020f573d6000803e3d6000fd5b505050506040513d601f19601f820116820180604052508101906102339190610274565b146101855760405162461bcd60e51b81526004016101699061028c565b60dc806102e683390190565b60006020828403121561026d578081fd5b5035919050565b600060208284031215610285578081fd5b5051919050565b6020808252600f908201526e3d3d3d4e4f5420455155414c3d3d3d60881b604082015260600190565b90815260200190565b60006000198214156102de57634e487b7160e01b81526011600452602481fd5b506001019056fe60806040526040516100dc3803806100dc8339810160408190526100229161002a565b600055610042565b60006020828403121561003b578081fd5b5051919050565b608c806100506000396000f3fe6080604052348015600f57600080fd5b506004361060285760003560e01c80630c55699c14602d575b600080fd5b60336047565b604051603e9190604d565b60405180910390f35b60005481565b9081526020019056fea26469706673582212207063f7d6722826cf8fbb8bde119f6119c5e0d4ea5c327f634605f919ecb4006064736f6c63430008000033a2646970667358221220268732fd226ae155e1e912dfb7772dccfb1b57a0f416d1af34649574cb8849be64736f6c6343000800003360806040526040516100dc3803806100dc8339810160408190526100229161002a565b600055610042565b60006020828403121561003b578081fd5b5051919050565b608c806100506000396000f3fe6080604052348015600f57600080fd5b506004361060285760003560e01c80630c55699c14602d575b600080fd5b60336047565b604051603e9190604d565b60405180910390f35b60005481565b9081526020019056fea26469706673582212207063f7d6722826cf8fbb8bde119f6119c5e0d4ea5c327f634605f919ecb4006064736f6c63430008000033",
  "immutableReferences": {},
  "source": "// SPDX-License-Identifier: GPL-3.0\npragma solidity ^0.8.0;\n\ncontract Son {\n    uint public x;\n    constructor(uint a) payable {\n        x = a;\n    }\n}\n\ncontract Create {\n    Son son1 = new Son(4); // will be executed as part of Create's constructor\n    Son son2 = new Son(4); // will be executed as part of Create's constructor\n    Son son3 = new Son(4); // will be executed as part of Create's constructor\n    Son son4 = new Son(4); // will be executed as part of Create's constructor\n\n    event ContractCreate(address indexed sonAddress, uint index);\n    function createSon(uint arg) public payable {\n        Son newSon = new Son(arg);\n        require( newSon.x() == arg, \"===NOT EQUAL===\");\n    }\n\n\n    function createSonEx(uint arg) public payable {\n        for(uint i = 0; i < arg; i++) {\n            Son newSon = new Son(arg);\n            emit ContractCreate(address(newSon), i);\n            require( newSon.x() == arg, \"===NOT EQUAL===\");\n        }\n    }\n\n\n}",
  "sourcePath": "/data/work/dicegame/contracts/Create.sol",
  "compiler": {
    "name": "solc",
    "version": "0.8.0+commit.c7dfd78e.Emscripten.clang"
  },
  "schemaVersion": "3.3.3",
  "updatedAt": "2021-05-27T10:33:56.119Z",
  "devdoc": {
    "kind": "dev",
    "methods": {},
    "version": 1
  },
  "userdoc": {
    "kind": "user",
    "methods": {},
    "version": 1
  }
}