{
  "contractName": "Create",
  "abi": [
    {
      "inputs": [
        {
          "internalType": "uint256",
          "name": "arg",
          "type": "uint256"
        }
      ],
      "name": "createSon",
      "outputs": [],
      "stateMutability": "payable",
      "type": "function"
    },
    {
      "inputs": [
        {
          "internalType": "uint256",
          "name": "arg",
          "type": "uint256"
        }
      ],
      "name": "createSonEx",
      "outputs": [],
      "stateMutability": "payable",
      "type": "function"
    }
  ],
  "bytecode": "0x608060405260046040516100129061016d565b61001c9190610179565b604051809103906000f080158015610038573d6000803e3d6000fd5b50600080546001600160a01b0319166001600160a01b03929092169190911790556040516004906100689061016d565b6100729190610179565b604051809103906000f08015801561008e573d6000803e3d6000fd5b50600180546001600160a01b0319166001600160a01b03929092169190911790556040516004906100be9061016d565b6100c89190610179565b604051809103906000f0801580156100e4573d6000803e3d6000fd5b50600280546001600160a01b0319166001600160a01b03929092169190911790556040516004906101149061016d565b61011e9190610179565b604051809103906000f08015801561013a573d6000803e3d6000fd5b50600380546001600160a01b0319166001600160a01b039290921691909117905534801561016757600080fd5b50610182565b60dc8061054783390190565b90815260200190565b6103b6806101916000396000f3fe6080604052600436106100295760003560e01c806387c8bda51461002e578063e9e1f97a14610043575b600080fd5b61004161003c36600461021b565b610056565b005b61004161005136600461021b565b610148565b60005b81811015610144576000826040516100709061020f565b61007a9190610274565b604051809103906000f080158015610096573d6000803e3d6000fd5b50905082816001600160a01b0316630c55699c6040518163ffffffff1660e01b815260040160206040518083038186803b1580156100d357600080fd5b505afa1580156100e7573d6000803e3d6000fd5b505050506040513d601f19601f8201168201806040525081019061010b9190610233565b146101315760405162461bcd60e51b81526004016101289061024b565b60405180910390fd5b508061013c8161027d565b915050610059565b5050565b6000816040516101579061020f565b6101619190610274565b604051809103906000f08015801561017d573d6000803e3d6000fd5b50905081816001600160a01b0316630c55699c6040518163ffffffff1660e01b815260040160206040518083038186803b1580156101ba57600080fd5b505afa1580156101ce573d6000803e3d6000fd5b505050506040513d601f19601f820116820180604052508101906101f29190610233565b146101445760405162461bcd60e51b81526004016101289061024b565b60dc806102a583390190565b60006020828403121561022c578081fd5b5035919050565b600060208284031215610244578081fd5b5051919050565b6020808252600f908201526e3d3d3d4e4f5420455155414c3d3d3d60881b604082015260600190565b90815260200190565b600060001982141561029d57634e487b7160e01b81526011600452602481fd5b506001019056fe60806040526040516100dc3803806100dc8339810160408190526100229161002a565b600055610042565b60006020828403121561003b578081fd5b5051919050565b608c806100506000396000f3fe6080604052348015600f57600080fd5b506004361060285760003560e01c80630c55699c14602d575b600080fd5b60336047565b604051603e9190604d565b60405180910390f35b60005481565b9081526020019056fea2646970667358221220553c71dc828bf61960ea171e344687f38e97eb49834509a5104af426920eb37664736f6c63430008000033a2646970667358221220d67571be1a8ec5f0bff0be13de7bf47b6811660fef4066bf6b54136063bb69de64736f6c6343000800003360806040526040516100dc3803806100dc8339810160408190526100229161002a565b600055610042565b60006020828403121561003b578081fd5b5051919050565b608c806100506000396000f3fe6080604052348015600f57600080fd5b506004361060285760003560e01c80630c55699c14602d575b600080fd5b60336047565b604051603e9190604d565b60405180910390f35b60005481565b9081526020019056fea2646970667358221220553c71dc828bf61960ea171e344687f38e97eb49834509a5104af426920eb37664736f6c63430008000033",
  "immutableReferences": {},
  "source": "// SPDX-License-Identifier: GPL-3.0\npragma solidity ^0.8.0;\n\ncontract Son {\n    uint public x;\n    constructor(uint a) payable {\n        x = a;\n    }\n}\n\ncontract Create {\n    Son son1 = new Son(4); // will be executed as part of Create's constructor\n    Son son2 = new Son(4); // will be executed as part of Create's constructor\n    Son son3 = new Son(4); // will be executed as part of Create's constructor\n    Son son4 = new Son(4); // will be executed as part of Create's constructor\n\n    function createSon(uint arg) public payable {\n        Son newSon = new Son(arg);\n        require( newSon.x() == arg, \"===NOT EQUAL===\");\n    }\n\n\n    function createSonEx(uint arg) public payable {\n        for(uint i = 0; i < arg; i++) {\n            Son newSon = new Son(arg);\n            require( newSon.x() == arg, \"===NOT EQUAL===\");\n        }\n    }\n\n\n}",
  "sourcePath": "/data/work/dicegame/contracts/Create.sol",
  "compiler": {
    "name": "solc",
    "version": "0.8.0+commit.c7dfd78e.Emscripten.clang"
  },
  "schemaVersion": "3.3.3",
  "updatedAt": "2021-05-11T02:21:20.729Z",
  "devdoc": {
    "kind": "dev",
    "methods": {},
    "version": 1
  },
  "userdoc": {
    "kind": "user",
    "methods": {},
    "version": 1
  }
}