{
  "contractName": "Dice2Win",
  "abi": [
    {
      "inputs": [],
      "stateMutability": "payable",
      "type": "constructor"
    },
    {
      "anonymous": false,
      "inputs": [
        {
          "indexed": false,
          "internalType": "uint256",
          "name": "commit",
          "type": "uint256"
        }
      ],
      "name": "Commit",
      "type": "event"
    },
    {
      "anonymous": false,
      "inputs": [
        {
          "indexed": true,
          "internalType": "address",
          "name": "beneficiary",
          "type": "address"
        },
        {
          "indexed": false,
          "internalType": "uint256",
          "name": "amount",
          "type": "uint256"
        }
      ],
      "name": "FailedPayment",
      "type": "event"
    },
    {
      "anonymous": false,
      "inputs": [
        {
          "indexed": true,
          "internalType": "address",
          "name": "beneficiary",
          "type": "address"
        },
        {
          "indexed": false,
          "internalType": "uint256",
          "name": "amount",
          "type": "uint256"
        }
      ],
      "name": "JackpotPayment",
      "type": "event"
    },
    {
      "anonymous": false,
      "inputs": [
        {
          "indexed": true,
          "internalType": "address",
          "name": "beneficiary",
          "type": "address"
        },
        {
          "indexed": false,
          "internalType": "uint256",
          "name": "amount",
          "type": "uint256"
        }
      ],
      "name": "Payment",
      "type": "event"
    },
    {
      "inputs": [],
      "name": "croupier",
      "outputs": [
        {
          "internalType": "address",
          "name": "",
          "type": "address"
        }
      ],
      "stateMutability": "view",
      "type": "function"
    },
    {
      "inputs": [],
      "name": "jackpotSize",
      "outputs": [
        {
          "internalType": "uint128",
          "name": "",
          "type": "uint128"
        }
      ],
      "stateMutability": "view",
      "type": "function"
    },
    {
      "inputs": [],
      "name": "lockedInBets",
      "outputs": [
        {
          "internalType": "uint128",
          "name": "",
          "type": "uint128"
        }
      ],
      "stateMutability": "view",
      "type": "function"
    },
    {
      "inputs": [],
      "name": "maxProfit",
      "outputs": [
        {
          "internalType": "uint256",
          "name": "",
          "type": "uint256"
        }
      ],
      "stateMutability": "view",
      "type": "function"
    },
    {
      "inputs": [],
      "name": "owner",
      "outputs": [
        {
          "internalType": "address",
          "name": "",
          "type": "address"
        }
      ],
      "stateMutability": "view",
      "type": "function"
    },
    {
      "inputs": [],
      "name": "secretSigner",
      "outputs": [
        {
          "internalType": "address",
          "name": "",
          "type": "address"
        }
      ],
      "stateMutability": "view",
      "type": "function"
    },
    {
      "stateMutability": "payable",
      "type": "receive"
    },
    {
      "inputs": [
        {
          "internalType": "address",
          "name": "_nextOwner",
          "type": "address"
        }
      ],
      "name": "approveNextOwner",
      "outputs": [],
      "stateMutability": "nonpayable",
      "type": "function"
    },
    {
      "inputs": [],
      "name": "acceptNextOwner",
      "outputs": [],
      "stateMutability": "nonpayable",
      "type": "function"
    },
    {
      "inputs": [
        {
          "internalType": "address",
          "name": "newSecretSigner",
          "type": "address"
        }
      ],
      "name": "setSecretSigner",
      "outputs": [],
      "stateMutability": "nonpayable",
      "type": "function"
    },
    {
      "inputs": [
        {
          "internalType": "address",
          "name": "newCroupier",
          "type": "address"
        }
      ],
      "name": "setCroupier",
      "outputs": [],
      "stateMutability": "nonpayable",
      "type": "function"
    },
    {
      "inputs": [
        {
          "internalType": "uint256",
          "name": "_maxProfit",
          "type": "uint256"
        }
      ],
      "name": "setMaxProfit",
      "outputs": [],
      "stateMutability": "nonpayable",
      "type": "function"
    },
    {
      "inputs": [
        {
          "internalType": "uint256",
          "name": "increaseAmount",
          "type": "uint256"
        }
      ],
      "name": "increaseJackpot",
      "outputs": [],
      "stateMutability": "nonpayable",
      "type": "function"
    },
    {
      "inputs": [
        {
          "internalType": "address",
          "name": "beneficiary",
          "type": "address"
        },
        {
          "internalType": "uint256",
          "name": "withdrawAmount",
          "type": "uint256"
        }
      ],
      "name": "withdrawFunds",
      "outputs": [],
      "stateMutability": "nonpayable",
      "type": "function"
    },
    {
      "inputs": [],
      "name": "kill",
      "outputs": [],
      "stateMutability": "nonpayable",
      "type": "function"
    },
    {
      "inputs": [
        {
          "internalType": "uint256",
          "name": "betMask",
          "type": "uint256"
        },
        {
          "internalType": "uint256",
          "name": "modulo",
          "type": "uint256"
        },
        {
          "internalType": "uint256",
          "name": "commitLastBlock",
          "type": "uint256"
        },
        {
          "internalType": "uint256",
          "name": "commit",
          "type": "uint256"
        },
        {
          "internalType": "bytes32",
          "name": "r",
          "type": "bytes32"
        },
        {
          "internalType": "bytes32",
          "name": "s",
          "type": "bytes32"
        }
      ],
      "name": "placeBet",
      "outputs": [],
      "stateMutability": "payable",
      "type": "function"
    },
    {
      "inputs": [
        {
          "internalType": "uint256",
          "name": "reveal",
          "type": "uint256"
        },
        {
          "internalType": "bytes32",
          "name": "blockHash",
          "type": "bytes32"
        }
      ],
      "name": "settleBet",
      "outputs": [],
      "stateMutability": "nonpayable",
      "type": "function"
    },
    {
      "inputs": [
        {
          "internalType": "uint256",
          "name": "reveal",
          "type": "uint256"
        },
        {
          "internalType": "uint40",
          "name": "canonicalBlockNumber",
          "type": "uint40"
        }
      ],
      "name": "settleBetUncleMerkleProof",
      "outputs": [],
      "stateMutability": "nonpayable",
      "type": "function"
    },
    {
      "inputs": [
        {
          "internalType": "uint256",
          "name": "commit",
          "type": "uint256"
        }
      ],
      "name": "refundBet",
      "outputs": [],
      "stateMutability": "nonpayable",
      "type": "function"
    }
  ],
  "bytecode": "0x608060405260008054336001600160a01b0319918216811783556003805473954d1a58c7abd4ac8ebe05f59191cf718eb0cb899084161790556006805490921617905568056bc75e2d631000006002556122b990819061005f90396000f3fe6080604052600436106100dd5760003560e01c806341c0e1b5146100e95780634d61537f1461010057806357246d231461012b5780635e83b4631461014d5780636b5c5f391461016057806374e048d5146101755780638da5cb5b14610195578063b539cd55146101aa578063c1075329146101cc578063ca722cdc146101ec578063d06c54fb1461020c578063d579fd4414610221578063d6d30a5114610241578063d702087f14610261578063df88126f14610281578063e1fdb4b414610296578063f8bb201c146102b6578063fbd668a9146102d6576100e4565b366100e457005b600080fd5b3480156100f557600080fd5b506100fe6102f6565b005b34801561010c57600080fd5b50610115610367565b6040516101229190611780565b60405180910390f35b34801561013757600080fd5b50610140610376565b6040516101229190612066565b6100fe61015b3660046116d2565b610385565b34801561016c57600080fd5b50610115610781565b34801561018157600080fd5b506100fe610190366004611714565b610790565b3480156101a157600080fd5b50610115610869565b3480156101b657600080fd5b506101bf610878565b604051610122919061174c565b3480156101d857600080fd5b506100fe6101e7366004611670565b61087e565b3480156101f857600080fd5b506100fe6102073660046116b1565b61092b565b34801561021857600080fd5b506100fe610a1d565b34801561022d57600080fd5b506100fe61023c36600461164f565b610a6b565b34801561024d57600080fd5b506100fe61025c366004611699565b610ae5565b34801561026d57600080fd5b506100fe61027c36600461164f565b610bc8565b34801561028d57600080fd5b50610140610c14565b3480156102a257600080fd5b506100fe6102b1366004611699565b610c2a565b3480156102c257600080fd5b506100fe6102d136600461164f565b610d6e565b3480156102e257600080fd5b506100fe6102f1366004611699565b610dba565b6000546001600160a01b031633146103295760405162461bcd60e51b815260040161032090611f4e565b60405180910390fd5b600454600160801b90046001600160801b0316156103595760405162461bcd60e51b815260040161032090611e07565b6000546001600160a01b0316ff5b6003546001600160a01b031681565b6004546001600160801b031681565b60008381526005602052604090206001810154600160601b90046001600160a01b0316156103c55760405162461bcd60e51b815260040161032090611ac6565b346001871180156103d7575060648711155b6103f35760405162461bcd60e51b815260040161032090611896565b6064811015801561040e5750693f870857a3e0e38000008111155b61042a5760405162461bcd60e51b81526004016103209061193a565b600088118015610444575061044160286002612117565b88105b6104605760405162461bcd60e51b8152600401610320906118cd565b854311156104805760405162461bcd60e51b8152600401610320906119f5565b60008686604051602001610495929190611763565b604051602081830303815290604052805190602001209050600181601b8787604051600081526020016040526040516104d19493929190611794565b6020604051602081039080840390855afa1580156104f3573d6000803e3d6000fd5b5050604051601f1901516003546001600160a01b03908116911614905061052c5760405162461bcd60e51b815260040161032090611b07565b60008060288a1161059257603f7e0104104104104104104104104104104104104104104104104104104104104161057d7920000000001000000000080000000004000000000200000000018e6121e5565b166105889190612243565b91508a90506105c2565b60008b1180156105a25750898b11155b6105be5760405162461bcd60e51b815260040161032090611fd6565b8a91505b6000806105d0868d86610e12565b60025491935091506105e290876120a5565b8211156106015760405162461bcd60e51b8152600401610320906117b2565b81600460108282829054906101000a90046001600160801b0316610625919061207a565b92506101000a8154816001600160801b0302191690836001600160801b0316021790555080600460008282829054906101000a90046001600160801b031661066d919061207a565b82546101009290920a6001600160801b038181021990931691831602179091556004544792506106a791600160801b82048116911661207a565b6001600160801b031611156106ce5760405162461bcd60e51b815260040161032090611903565b7f5bdd2fc99022530157777690475b670d3872f32262eb1d47d9ba8000dad58f878a6040516106fd919061174c565b60405180910390a150509284556001909301805460ff191660ff998a161761ff00191661010099909416989098029290921766ffffffffff00001916620100004364ffffffffff908116919091029190911764ffffffffff60381b1916600160381b9190921602176001600160601b031633600160601b0217909555505050505050565b6006546001600160a01b031681565b6006546001600160a01b031633146107ba5760405162461bcd60e51b815260040161032090611d1a565b6000826040516020016107cd919061174c565b60408051601f19818403018152918152815160209283012060008181526005909352912090915061080660fa64ffffffffff85166120a5565b4311156108255760405162461bcd60e51b815260040161032090612024565b61082f6048610ee0565b60008061083d846044611162565b909250905064ffffffffff851640821461085657600080fd5b61086183878361131c565b505050505050565b6000546001600160a01b031681565b60025481565b6000546001600160a01b031633146108a85760405162461bcd60e51b815260040161032090611f4e565b478111156108c85760405162461bcd60e51b815260040161032090611dc3565b600454479082906108eb906001600160801b03600160801b82048116911661207a565b6001600160801b03166108fe91906120a5565b111561091c5760405162461bcd60e51b815260040161032090611a59565b61092782828361150b565b5050565b6006546001600160a01b031633146109555760405162461bcd60e51b815260040161032090611d1a565b600082604051602001610968919061174c565b60408051808303601f19018152918152815160209283012060008181526005909352912060018101549192509062010000900464ffffffffff164381106109c15760405162461bcd60e51b815260040161032090611b84565b6109cc60fa826120a5565b4311156109eb5760405162461bcd60e51b815260040161032090612024565b83814014610a0b5760405162461bcd60e51b815260040161032090611863565b610a1682868661131c565b5050505050565b6001546001600160a01b03163314610a475760405162461bcd60e51b81526004016103209061181d565b600154600080546001600160a01b0319166001600160a01b03909216919091179055565b6000546001600160a01b03163314610a955760405162461bcd60e51b815260040161032090611f4e565b6000546001600160a01b0382811691161415610ac35760405162461bcd60e51b815260040161032090611a22565b600180546001600160a01b0319166001600160a01b0392909216919091179055565b6000546001600160a01b03163314610b0f5760405162461bcd60e51b815260040161032090611f4e565b47811115610b2f5760405162461bcd60e51b815260040161032090611dc3565b60045447908290610b52906001600160801b03600160801b82048116911661207a565b6001600160801b0316610b6591906120a5565b1115610b835760405162461bcd60e51b815260040161032090611a59565b60048054829190600090610ba19084906001600160801b031661207a565b92506101000a8154816001600160801b0302191690836001600160801b0316021790555050565b6000546001600160a01b03163314610bf25760405162461bcd60e51b815260040161032090611f4e565b600380546001600160a01b0319166001600160a01b0392909216919091179055565b600454600160801b90046001600160801b031681565b6000818152600560205260409020805480610c575760405162461bcd60e51b815260040161032090611a84565b6001820154610c759060fa9062010000900464ffffffffff166120a5565b4311610c935760405162461bcd60e51b815260040161032090612024565b600080835560018301548190610cb690849060ff80821691610100900416610e12565b600480549294509092508391601090610ce0908490600160801b90046001600160801b0316612204565b92506101000a8154816001600160801b0302191690836001600160801b0316021790555080600460008282829054906101000a90046001600160801b0316610d289190612204565b92506101000a8154816001600160801b0302191690836001600160801b03160217905550610a1684600101600c9054906101000a90046001600160a01b0316848561150b565b6000546001600160a01b03163314610d985760405162461bcd60e51b815260040161032090611f4e565b600680546001600160a01b0319166001600160a01b0392909216919091179055565b6000546001600160a01b03163314610de45760405162461bcd60e51b815260040161032090611f4e565b693f870857a3e0e38000008110610e0d5760405162461bcd60e51b815260040161032090611971565b600255565b600080826000108015610e255750838311155b610e415760405162461bcd60e51b8152600401610320906117e6565b6305f5e100851015610e54576000610e57565b600a5b905060006064610e686001886121e5565b610e7291906120bd565b90506003811015610e81575060035b85610e8c83836120a5565b1115610eaa5760405162461bcd60e51b8152600401610320906119b3565b838583610eb7848a61222c565b610ec1919061222c565b610ecb91906121e5565b610ed591906120bd565b925050935093915050565b803560001a60f7811015610f065760405162461bcd60e51b815260040161032090611f94565b610f1160f68261222c565b610f1b90836120a5565b9150813560001a607f8111610f3c57610f356001846120a5565b9250610f82565b60808110158015610f4e575060b78111155b610f6a5760405162461bcd60e51b815260040161032090611ea3565b610f75607f8261222c565b610f7f90846120a5565b92505b823560001a60b98114610fa75760405162461bcd60e51b815260040161032090611c7d565b610fb26003856120a5565b9350833560001a60f98114610fd95760405162461bcd60e51b815260040161032090611d66565b610fe46003866120a5565b9450843560001a6001811461100b5760405162461bcd60e51b815260040161032090611ce7565b6110166001876120a5565b9550853560001a607f8111611037576110306001886120a5565b965061107d565b60808110158015611049575060b78111155b6110655760405162461bcd60e51b815260040161032090611f19565b611070607f8261222c565b61107a90886120a5565b96505b863560001a60b981146110a25760405162461bcd60e51b815260040161032090611c0a565b6110ae610103896120a5565b9750873560001a60f881146110d55760405162461bcd60e51b815260040161032090611b3e565b6110e060028a6120a5565b9850883560001a60f881146111075760405162461bcd60e51b815260040161032090611ed3565b61111260028b6120a5565b9950893560001a609481146111395760405162461bcd60e51b815260040161032090611bd7565b600a198b01356001600160a01b031630811461115457600080fd5b505050505050505050505050565b6040516000908190818080805b601d1988013561ffff169250826111855761120f565b601b1988013561ffff1691508261119d8360206120a5565b11156111bb5760405162461bcd60e51b815260040161032090611c50565b6111c66004896120a5565b9750508087013580156111eb5760405162461bcd60e51b815260040161032090611e75565b8288863788828601528285209850829350828861120891906120a5565b975061116f565b889550600061121e85876120a5565b905061ffff601b198a01358116906019198b0135168161123e88836120a5565b111561125c5760405162461bcd60e51b815260040161032090611c50565b61126760068c6120a5565b9a50818b843761128161127a82856120a5565b89896115c2565b8183209b50611290828c6120a5565b9a5061ffff601d198c013581169650601b198c0135169450856112b48660206120a5565b11156112d25760405162461bcd60e51b815260040161032090611c50565b6112dd60048c6120a5565b9a50848b0135935083156113035760405162461bcd60e51b815260040161032090611e75565b858b893750505050830196909652509390932093915050565b8254600184015460ff80821691610100810490911690600160601b90046001600160a01b03168361135f5760405162461bcd60e51b815260040161032090611a84565b60008088556040516113779088908890602001611755565b60408051601f1981840301815291905280516020909101209050600061139d8583612243565b90506000806113ad888888610e12565b9092509050600080602889116113ea5760018d0154600160381b900464ffffffffff166113db866002612117565b16156113e5578391505b6113f6565b878510156113f6578391505b83600460108282829054906101000a90046001600160801b031661141a9190612204565b92506101000a8154816001600160801b0302191690836001600160801b031602179055506305f5e1008a106114895760006103e86114588b896120bd565b6114629190612243565b90508061148757600480546001600160801b031981169091556001600160801b031691505b505b80156114d157866001600160a01b03167fc388db0e8aa560a59633c094a0d0aa21322cd6234836fd5bac00fc5ae63b5783826040516114c8919061174c565b60405180910390a25b6114fc876114df83856120a5565b156114f3576114ee83856120a5565b6114f6565b60015b8461150b565b50505050505050505050505050565b6040516001600160a01b0384169083156108fc029084906000818181858888f193505050501561157b57826001600160a01b03167fd4f43975feb89f48dd30cabbb32011045be187d1e11c8ea9faa43efc352825198260405161156e919061174c565b60405180910390a26115bd565b826001600160a01b03167fac464fe4d3a86b9121261ac0a01dd981bfe0777c7c9d9c8f4473d31a9c0f9d2d836040516115b4919061174c565b60405180910390a25b505050565b602081106115fa57815183526115d96020846120a5565b92506115e66020836120a5565b91506115f360208261222c565b90506115c2565b6000600161160983602061222c565b61161590610100612117565b61161f919061222c565b925184518416931916929092179092525050565b80356001600160a01b038116811461164a57600080fd5b919050565b600060208284031215611660578081fd5b61166982611633565b9392505050565b60008060408385031215611682578081fd5b61168b83611633565b946020939093013593505050565b6000602082840312156116aa578081fd5b5035919050565b600080604083850312156116c3578182fd5b50508035926020909101359150565b60008060008060008060c087890312156116ea578182fd5b505084359660208601359650604086013595606081013595506080810135945060a0013592509050565b60008060408385031215611726578182fd5b82359150602083013564ffffffffff81168114611741578182fd5b809150509250929050565b90815260200190565b918252602082015260400190565b60d89290921b6001600160d81b0319168252600582015260250190565b6001600160a01b0391909116815260200190565b93845260ff9290921660208401526040830152606082015260800190565b6020808252601a908201527936b0bc283937b334ba103634b6b4ba103b34b7b630ba34b7b71760311b604082015260600190565b6020808252601d908201527f57696e2070726f626162696c697479206f7574206f662072616e67652e000000604082015260600190565b60208082526026908201527f43616e206f6e6c792061636365707420707265617070726f766564206e65772060408201526537bbb732b91760d11b606082015260800190565b602080825260199082015278189b1bd8dada185cda08191bd95cdb89dd081b585d18da1959603a1b604082015260600190565b6020808252601e908201527f4d6f64756c6f2073686f756c642062652077697468696e2072616e67652e0000604082015260600190565b6020808252601c908201527b26b0b9b59039b437bab632103132903bb4ba3434b7103930b733b29760211b604082015260600190565b6020808252601f908201527f43616e6e6f74206166666f726420746f206c6f73652074686973206265742e00604082015260600190565b6020808252601e908201527f416d6f756e742073686f756c642062652077697468696e2072616e67652e0000604082015260600190565b60208082526022908201527f6d617850726f6669742073686f756c6420626520612073616e65206e756d6265604082015261391760f11b606082015260800190565b60208082526022908201527f42657420646f65736e2774206576656e20636f76657220686f75736520656467604082015261329760f11b606082015260800190565b60208082526013908201527221b7b6b6b4ba103430b99032bc3834b932b21760691b604082015260600190565b6020808252601d908201527f43616e6e6f7420617070726f76652063757272656e74206f776e65722e000000604082015260600190565b6020808252601190820152702737ba1032b737bab3b410333ab732399760791b604082015260600190565b60208082526022908201527f4265742073686f756c6420626520696e20616e20276163746976652720737461604082015261746560f01b606082015260800190565b60208082526021908201527f4265742073686f756c6420626520696e20612027636c65616e272073746174656040820152601760f91b606082015260800190565b6020808252601d908201527f4543445341207369676e6174757265206973206e6f742076616c69642e000000604082015260600190565b60208082526026908201527f4c6f6773206c697374206973206c657373207468616e20323536206279746573604082015265103637b7339760d11b606082015260800190565b60208082526033908201527f736574746c6542657420696e207468652073616d6520626c6f636b20617320706040820152723630b1b2a132ba161037b9103132b337b9329760691b606082015260800190565b60208082526019908201527820b2323932b9b99034b990191810313cba32b9903637b7339760391b604082015260600190565b60208082526026908201527f426c6f6f6d2066696c74657220697320616c7761797320323536206279746573604082015265103637b7339760d11b606082015260800190565b60208082526013908201527229b434b33a103137bab732399031b432b1b59760691b604082015260600190565b60208082526044908201527f5265636569707420737472696e6720697320616c77617973206174206c65617360408201527f7420323536206279746573206c6f6e672c20627574206c657373207468616e206060820152631b1a359760e11b608082015260a00190565b60208082526019908201527829ba30ba3ab99039b437bab6321031329039bab1b1b2b9b99760391b604082015260600190565b6020808252602c908201527f4f6e6c7943726f7570696572206d6574686f64732063616c6c6564206279206e60408201526b37b716b1b937bab834b2b91760a11b606082015260800190565b6020808252603d908201527f5265636569707420697320616c77617973206174206c6561737420323536206260408201527f79746573206c6f6e672c20627574206c657373207468616e2036346b2e000000606082015260800190565b60208082526024908201527f496e63726561736520616d6f756e74206c6172676572207468616e2062616c616040820152633731b29760e11b606082015260800190565b60208082526048908201527f416c6c20626574732073686f756c642062652070726f6365737365642028736560408201527f74746c6564206f7220726566756e64656429206265666f72652073656c662d6460608201526732b9ba393ab1ba1760c11b608082015260a00190565b6020808252601490820152732737b716b2b6b83a3c903430b9b41039b637ba1760611b604082015260600190565b6020808252601690820152752830ba341034b99030b7102926281039ba3934b7339760511b604082015260600190565b60208082526026908201527f4c6f6720656e747279206973206c657373207468616e20323536206279746573604082015265103637b7339760d11b606082015260800190565b6020808252818101527f43756d756c61746976652067617320697320616e20524c5020737472696e672e604082015260600190565b60208082526026908201527f4f6e6c794f776e6572206d6574686f64732063616c6c6564206279206e6f6e2d60408201526537bbb732b91760d11b606082015260800190565b60208082526022908201527f52656365697074206c656166206c6f6e676572207468616e2035352062797465604082015261399760f11b606082015260800190565b6020808252602e908201527f48696768206d6f64756c6f2072616e67652c206265744d61736b206c6172676560408201526d39103a3430b71036b7b23ab6379760911b606082015260800190565b60208082526022908201527f426c6f636b686173682063616e27742062652071756572696564206279204556604082015261269760f11b606082015260800190565b6001600160801b0391909116815260200190565b60006001600160801b0382811684821680830382111561209c5761209c612257565b01949350505050565b600082198211156120b8576120b8612257565b500190565b6000826120cc576120cc61226d565b500490565b80825b60018086116120e3575061210e565b8187048211156120f5576120f5612257565b8086161561210257918102915b9490941c9380026120d4565b94509492505050565b6000611669600019848460008261213057506001611669565b8161213d57506000611669565b8160018114612153576002811461215d5761218a565b6001915050611669565b60ff84111561216e5761216e612257565b6001841b91508482111561218457612184612257565b50611669565b5060208310610133831016604e8410600b84101617156121bd575081810a838111156121b8576121b8612257565b611669565b6121ca84848460016120d1565b8086048211156121dc576121dc612257565b02949350505050565b60008160001904831182151516156121ff576121ff612257565b500290565b60006001600160801b038381169083168181101561222457612224612257565b039392505050565b60008282101561223e5761223e612257565b500390565b6000826122525761225261226d565b500690565b634e487b7160e01b600052601160045260246000fd5b634e487b7160e01b600052601260045260246000fdfea2646970667358221220705659fa4ec5555e3b64a891fceea34b41003f0b9f3c8b727c176e32ff848b8164736f6c63430008000033",
  "immutableReferences": {},
  "source": "/**\n *Submitted for verification at Etherscan.io on 2018-09-07\n*/\n\npragma solidity >=0.4.24 <0.9.0;\n\n// * dice2.win - fair games that pay Ether. Version 5.\n//\n// * Ethereum smart contract, deployed at 0xD1CEeeeee83F8bCF3BEDad437202b6154E9F5405.\n//\n// * Uses hybrid commit-reveal + block hash random number generation that is immune\n//   to tampering by players, house and miners. Apart from being fully transparent,\n//   this also allows arbitrarily high bets.\n//\n// * Refer to https://dice2.win/whitepaper.pdf for detailed description and proofs.\n\ncontract Dice2Win {\n\n    // Constants section\n\n   // Each bet is deducted 1% in favour of the house, but no less than some minimum.\n    // The lower bound is dictated by gas costs of the settleBet transaction, providing\n    // headroom for up to 10 Gwei prices.\n    //  1%, \n    uint constant HOUSE_EDGE_PERCENT = 1;\n    // uint constant HOUSE_EDGE_MINIMUM_AMOUNT = 0.0003 ether;\n    uint constant HOUSE_EDGE_MINIMUM_AMOUNT = 3 ;\n\n    // Bets lower than this amount do not participate in jackpot rolls (and are\n    // not deducted JACKPOT_FEE).\n    // \n    // uint constant MIN_JACKPOT_BET = 0.1 ether;\n    uint constant MIN_JACKPOT_BET = 10**8 ; // HTDF\n\n    // Chance to win jackpot (currently 0.1%) and fee deducted into jackpot fund.\n    // , \n    uint constant JACKPOT_MODULO = 1000;\n    // uint constant JACKPOT_FEE = 0.001 ether;\n    uint constant JACKPOT_FEE = 10 ;\n\n    // There is minimum and maximum bets.\n    // \n    // uint constant MIN_BET = 0.01 ether;\n    uint constant MIN_BET = 100; //HTDF, 100000000 1HTDF\n    uint constant MAX_AMOUNT = 300000 ether;\n\n    // Modulo is a number of equiprobable outcomes in a game:\n    //  - 2 for coin flip\n    //  - 6 for dice\n    //  - 6*6 = 36 for double dice\n    //  - 100 for etheroll\n    //  - 37 for roulette\n    //  etc.\n    // It's called so because 256-bit entropy is treated like a huge integer and\n    // the remainder of its division by modulo is considered bet outcome.\n    uint constant MAX_MODULO = 100;\n\n    // For modulos below this threshold rolls are checked against a bit mask,\n    // thus allowing betting on any combination of outcomes. For example, given\n    // modulo 6 for dice, 101000 mask (base-2, big endian) means betting on\n    // 4 and 6; for games with modulos higher than threshold (Etheroll), a simple\n    // limit is used, allowing betting on any outcome in [0, N) range.\n    //\n    // The specific value is dictated by the fact that 256-bit intermediate\n    // multiplication result allows implementing population count efficiently\n    // for numbers that are up to 42 bits, and 40 is the highest multiple of\n    // eight below 42.\n    uint constant MAX_MASK_MODULO = 40;\n\n    // This is a check on bet mask overflow.\n    uint constant MAX_BET_MASK = 2 ** MAX_MASK_MODULO;\n\n    // EVM BLOCKHASH opcode can query no further than 256 blocks into the\n    // past. Given that settleBet uses block hash of placeBet as one of\n    // complementary entropy sources, we cannot process bets older than this\n    // threshold. On rare occasions dice2.win croupier may fail to invoke\n    // settleBet in this timespan due to technical issues or extreme Ethereum\n    // congestion; such bets can be refunded via invoking refundBet.\n    uint constant BET_EXPIRATION_BLOCKS = 250;\n\n    // Some deliberately invalid address to initialize the secret signer with.\n    // Forces maintainers to invoke setSecretSigner before processing any bets.\n    address constant DUMMY_ADDRESS = 0xEeeeeEeeeEeEeeEeEeEeeEEEeeeeEeeeeeeeEEeE;\n\n    // Standard contract ownership transfer.\n    address public owner;\n    address private nextOwner;\n\n    // Adjustable max bet profit. Used to cap bets against dynamic odds.\n    uint public maxProfit;\n\n    // The address corresponding to a private key used to sign placeBet commits.\n    address public secretSigner;\n\n    // Accumulated jackpot fund.\n    uint128 public jackpotSize;\n\n    // Funds that are locked in potentially winning bets. Prevents contract from\n    // committing to bets it cannot pay out.\n    uint128 public lockedInBets;\n\n    // A structure representing a single bet.\n    struct Bet {\n        // Wager amount in wei.\n        uint amount;\n        // Modulo of a game.\n        uint8 modulo;\n        // Number of winning outcomes, used to compute winning payment (* modulo/rollUnder),\n        // and used instead of mask for games with modulo > MAX_MASK_MODULO.\n        uint8 rollUnder;\n        // Block number of placeBet tx.\n        uint40 placeBlockNumber;\n        // Bit mask representing winning bet outcomes (see MAX_MASK_MODULO comment).\n        uint40 mask;\n        // Address of a gambler, used to pay out winning bets.\n        address gambler;\n    }\n\n    // Mapping from commits to all currently active & processed bets.\n    mapping (uint => Bet) bets;\n\n    // Croupier account.\n    address public croupier;\n\n    // Events that are issued to make statistic recovery easier.\n    event FailedPayment(address indexed beneficiary, uint amount);\n    event Payment(address indexed beneficiary, uint amount);\n    event JackpotPayment(address indexed beneficiary, uint amount);\n\n    // This event is emitted in placeBet to record commit in the logs.\n    event Commit(uint commit);\n\n    // Constructor. Deliberately does not take any parameters.\n    constructor  () payable  {\n         owner = msg.sender;\n        // secretSigner = msg.sender;\n         secretSigner = payable(0x954d1a58c7abd4ac8ebe05f59191Cf718eb0cB89);\n         croupier = msg.sender;\n         maxProfit = 100 ether;\n    }\n\n    // Standard modifier on methods invokable only by contract owner.\n    modifier onlyOwner {\n        require (msg.sender == owner, \"OnlyOwner methods called by non-owner.\");\n        _;\n    }\n\n    // Standard modifier on methods invokable only by contract owner.\n    modifier onlyCroupier {\n        require (msg.sender == croupier, \"OnlyCroupier methods called by non-croupier.\");\n        _;\n    }\n\n    // Standard contract ownership transfer implementation,\n    function approveNextOwner(address _nextOwner) external onlyOwner {\n        require (_nextOwner != owner, \"Cannot approve current owner.\");\n        nextOwner = _nextOwner;\n    }\n\n    function acceptNextOwner() external {\n        require (msg.sender == nextOwner, \"Can only accept preapproved new owner.\");\n        owner = nextOwner;\n    }\n\n    // Fallback function deliberately left empty. It's primary use case\n    // is to top up the bank roll.\n    // function () public payable {\n    receive() external payable {\n    }\n\n    // See comment for \"secretSigner\" variable.\n    function setSecretSigner(address newSecretSigner) external onlyOwner {\n        secretSigner = newSecretSigner;\n    }\n\n    // Change the croupier address.\n    function setCroupier(address newCroupier) external onlyOwner {\n        croupier = newCroupier;\n    }\n\n    // Change max bet reward. Setting this to zero effectively disables betting.\n    function setMaxProfit(uint _maxProfit) public onlyOwner {\n        require (_maxProfit < MAX_AMOUNT, \"maxProfit should be a sane number.\");\n        maxProfit = _maxProfit;\n    }\n\n    // This function is used to bump up the jackpot fund. Cannot be used to lower it.\n    function increaseJackpot(uint increaseAmount) external onlyOwner {\n        require (increaseAmount <= address(this).balance, \"Increase amount larger than balance.\");\n        require (jackpotSize + lockedInBets + increaseAmount <= address(this).balance, \"Not enough funds.\");\n        jackpotSize += uint128(increaseAmount);\n    }\n\n    // Funds withdrawal to cover costs of dice2.win operation.\n    function withdrawFunds(address beneficiary, uint withdrawAmount) external onlyOwner {\n        require (withdrawAmount <= address(this).balance, \"Increase amount larger than balance.\");\n        require (jackpotSize + lockedInBets + withdrawAmount <= address(this).balance, \"Not enough funds.\");\n        sendFunds(beneficiary, withdrawAmount, withdrawAmount);\n    }\n\n    // Contract may be destroyed only when there are no ongoing bets,\n    // either settled or refunded. All funds are transferred to contract owner.\n    function kill() external onlyOwner {\n        require (lockedInBets == 0, \"All bets should be processed (settled or refunded) before self-destruct.\");\n        selfdestruct(payable(owner));\n    }\n\n    /// *** Betting logic\n\n    // Bet states:\n    //  amount == 0 && gambler == 0 - 'clean' (can place a bet)\n    //  amount != 0 && gambler != 0 - 'active' (can be settled or refunded)\n    //  amount == 0 && gambler != 0 - 'processed' (can clean storage)\n    //\n    //  NOTE: Storage cleaning is not implemented in this contract version; it will be added\n    //        with the next upgrade to prevent polluting Ethereum state with expired bets.\n\n    // Bet placing transaction - issued by the player.\n    //  betMask         - bet outcomes bit mask for modulo <= MAX_MASK_MODULO,\n    //                    [0, betMask) for larger modulos.\n    //  modulo          - game modulo.\n    //  commitLastBlock - number of the maximum block where \"commit\" is still considered valid.\n    //  commit          - Keccak256 hash of some secret \"reveal\" random number, to be supplied\n    //                    by the dice2.win croupier bot in the settleBet transaction. Supplying\n    //                    \"commit\" ensures that \"reveal\" cannot be changed behind the scenes\n    //                    after placeBet have been mined.\n    //  r, s            - components of ECDSA signature of (commitLastBlock, commit). v is\n    //                    guaranteed to always equal 27.\n    //\n    // Commit, being essentially random 256-bit number, is used as a unique bet identifier in\n    // the 'bets' mapping.\n    //\n    // Commits are signed with a block limit to ensure that they are used at most once - otherwise\n    // it would be possible for a miner to place a bet with a known commit/reveal pair and tamper\n    // with the blockhash. Croupier guarantees that commitLastBlock will always be not greater than\n    // placeBet block number plus BET_EXPIRATION_BLOCKS. See whitepaper for details.\n    function placeBet(uint betMask, uint modulo, uint commitLastBlock, uint commit, bytes32 r, bytes32 s) external payable {\n        // Check that the bet is in 'clean' state.\n        Bet storage bet = bets[commit];\n        require (bet.gambler == address(0), \"Bet should be in a 'clean' state.\");\n\n        // Validate input data ranges.\n        uint amount = msg.value;\n        require (modulo > 1 && modulo <= MAX_MODULO, \"Modulo should be within range.\");\n        require (amount >= MIN_BET && amount <= MAX_AMOUNT, \"Amount should be within range.\");\n        require (betMask > 0 && betMask < MAX_BET_MASK, \"Mask should be within range.\");\n\n        // Check that commit is valid - it has not expired and its signature is valid.\n        require (block.number <= commitLastBlock, \"Commit has expired.\");\n        bytes32 signatureHash = keccak256(abi.encodePacked(uint40(commitLastBlock), commit));\n        require (secretSigner == ecrecover(signatureHash, 27, r, s), \"ECDSA signature is not valid.\");\n\n        uint rollUnder;\n        uint mask;\n\n        if (modulo <= MAX_MASK_MODULO) {\n            // Small modulo games specify bet outcomes via bit mask.\n            // rollUnder is a number of 1 bits in this mask (population count).\n            // This magic looking formula is an efficient way to compute population\n            // count on EVM for numbers below 2**40. For detailed proof consult\n            // the dice2.win whitepaper.\n            rollUnder = ((betMask * POPCNT_MULT) & POPCNT_MASK) % POPCNT_MODULO;\n            mask = betMask;\n        } else {\n            // Larger modulos specify the right edge of half-open interval of\n            // winning bet outcomes.\n            require (betMask > 0 && betMask <= modulo, \"High modulo range, betMask larger than modulo.\");\n            rollUnder = betMask;\n        }\n\n        // Winning amount and jackpot increase.\n        uint possibleWinAmount;\n        uint jackpotFee;\n\n        (possibleWinAmount, jackpotFee) = getDiceWinAmount(amount, modulo, rollUnder);\n\n        // Enforce max profit limit.\n        require (possibleWinAmount <= amount + maxProfit, \"maxProfit limit violation.\");\n\n        // Lock funds.\n        lockedInBets += uint128(possibleWinAmount);\n        jackpotSize += uint128(jackpotFee);\n\n        // Check whether contract has enough funds to process this bet.\n        require (jackpotSize + lockedInBets <= address(this).balance, \"Cannot afford to lose this bet.\");\n\n        // Record commit in logs.\n        emit Commit(commit);\n\n        // Store bet parameters on blockchain.\n        bet.amount = amount;\n        bet.modulo = uint8(modulo);\n        bet.rollUnder = uint8(rollUnder);\n        bet.placeBlockNumber = uint40(block.number);\n        bet.mask = uint40(mask);\n        bet.gambler = msg.sender;\n    }\n\n    // This is the method used to settle 99% of bets. To process a bet with a specific\n    // \"commit\", settleBet should supply a \"reveal\" number that would Keccak256-hash to\n    // \"commit\". \"blockHash\" is the block hash of placeBet block as seen by croupier; it\n    // is additionally asserted to prevent changing the bet outcomes on Ethereum reorgs.\n    function settleBet(uint reveal, bytes32 blockHash) external onlyCroupier {\n        uint commit = uint(keccak256(abi.encodePacked(reveal)));\n\n        Bet storage bet = bets[commit];\n        uint placeBlockNumber = bet.placeBlockNumber;\n\n        // Check that bet has not expired yet (see comment to BET_EXPIRATION_BLOCKS).\n        require (block.number > placeBlockNumber, \"settleBet in the same block as placeBet, or before.\");\n        require (block.number <= placeBlockNumber + BET_EXPIRATION_BLOCKS, \"Blockhash can't be queried by EVM.\");\n        require (blockhash(placeBlockNumber) == blockHash, \"blockhash doesn't matched\");\n\n        // Settle bet using reveal and blockHash as entropy sources.\n        settleBetCommon(bet, reveal, blockHash);\n    }\n\n    // This method is used to settle a bet that was mined into an uncle block. At this\n    // point the player was shown some bet outcome, but the blockhash at placeBet height\n    // is different because of Ethereum chain reorg. We supply a full merkle proof of the\n    // placeBet transaction receipt to provide untamperable evidence that uncle block hash\n    // indeed was present on-chain at some point.\n    function settleBetUncleMerkleProof(uint reveal, uint40 canonicalBlockNumber) external onlyCroupier {\n        // \"commit\" for bet settlement can only be obtained by hashing a \"reveal\".\n        uint commit = uint(keccak256(abi.encodePacked(reveal)));\n\n        Bet storage bet = bets[commit];\n\n        // Check that canonical block hash can still be verified.\n        require (block.number <= canonicalBlockNumber + BET_EXPIRATION_BLOCKS, \"Blockhash can't be queried by EVM.\");\n\n        // Verify placeBet receipt.\n        requireCorrectReceipt(4 + 32 + 32 + 4);\n\n        // Reconstruct canonical & uncle block hashes from a receipt merkle proof, verify them.\n        bytes32 canonicalHash;\n        bytes32 uncleHash;\n        (canonicalHash, uncleHash) = verifyMerkleProof(commit, 4 + 32 + 32);\n        require (blockhash(canonicalBlockNumber) == canonicalHash);\n\n        // Settle bet using reveal and uncleHash as entropy sources.\n        settleBetCommon(bet, reveal, uncleHash);\n    }\n\n    // Common settlement code for settleBet & settleBetUncleMerkleProof.\n    function settleBetCommon(Bet storage bet, uint reveal, bytes32 entropyBlockHash) private {\n        // Fetch bet parameters into local variables (to save gas).\n        uint amount = bet.amount;\n        uint modulo = bet.modulo;\n        uint rollUnder = bet.rollUnder;\n        address gambler = bet.gambler;\n\n        // Check that bet is in 'active' state.\n        require (amount != 0, \"Bet should be in an 'active' state\");\n\n        // Move bet into 'processed' state already.\n        bet.amount = 0;\n\n        // The RNG - combine \"reveal\" and blockhash of placeBet using Keccak256. Miners\n        // are not aware of \"reveal\" and cannot deduce it from \"commit\" (as Keccak256\n        // preimage is intractable), and house is unable to alter the \"reveal\" after\n        // placeBet have been mined (as Keccak256 collision finding is also intractable).\n        bytes32 entropy = keccak256(abi.encodePacked(reveal, entropyBlockHash));\n\n        // Do a roll by taking a modulo of entropy. Compute winning amount.\n        uint dice = uint(entropy) % modulo;\n\n        uint diceWinAmount;\n        uint _jackpotFee;\n        (diceWinAmount, _jackpotFee) = getDiceWinAmount(amount, modulo, rollUnder);\n\n        uint diceWin = 0;\n        uint jackpotWin = 0;\n\n        // Determine dice outcome.\n        if (modulo <= MAX_MASK_MODULO) {\n            // For small modulo games, check the outcome against a bit mask.\n            if ((2 ** dice) & bet.mask != 0) {\n                diceWin = diceWinAmount;\n            }\n\n        } else {\n            // For larger modulos, check inclusion into half-open interval.\n            if (dice < rollUnder) {\n                diceWin = diceWinAmount;\n            }\n\n        }\n\n        // Unlock the bet amount, regardless of the outcome.\n        lockedInBets -= uint128(diceWinAmount);\n\n        // Roll for a jackpot (if eligible).\n        if (amount >= MIN_JACKPOT_BET) {\n            // The second modulo, statistically independent from the \"main\" dice roll.\n            // Effectively you are playing two games at once!\n            uint jackpotRng = (uint(entropy) / modulo) % JACKPOT_MODULO;\n\n            // Bingo!\n            if (jackpotRng == 0) {\n                jackpotWin = jackpotSize;\n                jackpotSize = 0;\n            }\n        }\n\n        // Log jackpot win.\n        if (jackpotWin > 0) {\n            emit JackpotPayment(gambler, jackpotWin);\n        }\n\n        // Send the funds to gambler.\n        sendFunds(gambler, diceWin + jackpotWin == 0 ? 1 wei : diceWin + jackpotWin, diceWin);\n    }\n\n    // Refund transaction - return the bet amount of a roll that was not processed in a\n    // due timeframe. Processing such blocks is not possible due to EVM limitations (see\n    // BET_EXPIRATION_BLOCKS comment above for details). In case you ever find yourself\n    // in a situation like this, just contact the dice2.win support, however nothing\n    // precludes you from invoking this method yourself.\n    function refundBet(uint commit) external {\n        // Check that bet is in 'active' state.\n        Bet storage bet = bets[commit];\n        uint amount = bet.amount;\n\n        require (amount != 0, \"Bet should be in an 'active' state\");\n\n        // Check that bet has already expired.\n        require (block.number > bet.placeBlockNumber + BET_EXPIRATION_BLOCKS, \"Blockhash can't be queried by EVM.\");\n\n        // Move bet into 'processed' state, release funds.\n        bet.amount = 0;\n\n        uint diceWinAmount;\n        uint jackpotFee;\n        (diceWinAmount, jackpotFee) = getDiceWinAmount(amount, bet.modulo, bet.rollUnder);\n\n        lockedInBets -= uint128(diceWinAmount);\n        jackpotSize -= uint128(jackpotFee);\n\n        // Send the refund.\n        sendFunds(bet.gambler, amount, amount);\n    }\n\n    // Get the expected win amount after house edge is subtracted.\n    function getDiceWinAmount(uint amount, uint modulo, uint rollUnder) private pure returns (uint winAmount, uint jackpotFee) {\n        require (0 < rollUnder && rollUnder <= modulo, \"Win probability out of range.\");\n\n        jackpotFee = amount >= MIN_JACKPOT_BET ? JACKPOT_FEE : 0;\n\n        uint houseEdge = amount * HOUSE_EDGE_PERCENT / 100;\n\n        if (houseEdge < HOUSE_EDGE_MINIMUM_AMOUNT) {\n            houseEdge = HOUSE_EDGE_MINIMUM_AMOUNT;\n        }\n\n        require (houseEdge + jackpotFee <= amount, \"Bet doesn't even cover house edge.\");\n        winAmount = (amount - houseEdge - jackpotFee) * modulo / rollUnder;\n    }\n\n    // Helper routine to process the payment.\n    function sendFunds(address beneficiary, uint amount, uint successLogAmount) private {\n        if (payable(beneficiary).send(amount)) {\n            emit Payment(beneficiary, successLogAmount);\n        } else {\n            emit FailedPayment(beneficiary, amount);\n        }\n    }\n\n    // This are some constants making O(1) population count in placeBet possible.\n    // See whitepaper for intuition and proofs behind it.\n    uint constant POPCNT_MULT = 0x0000000000002000000000100000000008000000000400000000020000000001;\n    uint constant POPCNT_MASK = 0x0001041041041041041041041041041041041041041041041041041041041041;\n    uint constant POPCNT_MODULO = 0x3F;\n\n    // *** Merkle proofs.\n\n    // This helpers are used to verify cryptographic proofs of placeBet inclusion into\n    // uncle blocks. They are used to prevent bet outcome changing on Ethereum reorgs without\n    // compromising the security of the smart contract. Proof data is appended to the input data\n    // in a simple prefix length format and does not adhere to the ABI.\n    // Invariants checked:\n    //  - receipt trie entry contains a (1) successful transaction (2) directed at this smart\n    //    contract (3) containing commit as a payload.\n    //  - receipt trie entry is a part of a valid merkle proof of a block header\n    //  - the block header is a part of uncle list of some block on canonical chain\n    // The implementation is optimized for gas cost and relies on the specifics of Ethereum internal data structures.\n    // Read the whitepaper for details.\n\n    // Helper to verify a full merkle proof starting from some seedHash (usually commit). \"offset\" is the location of the proof\n    // beginning in the calldata.\n    function verifyMerkleProof(uint seedHash, uint offset) pure private returns (bytes32 blockHash, bytes32 uncleHash) {\n        // (Safe) assumption - nobody will write into RAM during this method invocation.\n        uint scratchBuf1;  assembly { scratchBuf1 := mload(0x40) }\n\n        uint uncleHeaderLength; uint blobLength; uint shift; uint hashSlot;\n\n        // Verify merkle proofs up to uncle block header. Calldata layout is:\n        //  - 2 byte big-endian slice length\n        //  - 2 byte big-endian offset to the beginning of previous slice hash within the current slice (should be zeroed)\n        //  - followed by the current slice verbatim\n        for (;; offset += blobLength) {\n            assembly { blobLength := and(calldataload(sub(offset, 30)), 0xffff) }\n            if (blobLength == 0) {\n                // Zero slice length marks the end of uncle proof.\n                break;\n            }\n\n            assembly { shift := and(calldataload(sub(offset, 28)), 0xffff) }\n            require (shift + 32 <= blobLength, \"Shift bounds check.\");\n\n            offset += 4;\n            assembly { hashSlot := calldataload(add(offset, shift)) }\n            require (hashSlot == 0, \"Non-empty hash slot.\");\n\n            assembly {\n                calldatacopy(scratchBuf1, offset, blobLength)\n                mstore(add(scratchBuf1, shift), seedHash)\n                seedHash := keccak256(scratchBuf1, blobLength)\n                uncleHeaderLength := blobLength\n            }\n        }\n\n        // At this moment the uncle hash is known.\n        uncleHash = bytes32(seedHash);\n\n        // Construct the uncle list of a canonical block.\n        uint scratchBuf2 = scratchBuf1 + uncleHeaderLength;\n        uint unclesLength; assembly { unclesLength := and(calldataload(sub(offset, 28)), 0xffff) }\n        uint unclesShift;  assembly { unclesShift := and(calldataload(sub(offset, 26)), 0xffff) }\n        require (unclesShift + uncleHeaderLength <= unclesLength, \"Shift bounds check.\");\n\n        offset += 6;\n        assembly { calldatacopy(scratchBuf2, offset, unclesLength) }\n        memcpy(scratchBuf2 + unclesShift, scratchBuf1, uncleHeaderLength);\n\n        assembly { seedHash := keccak256(scratchBuf2, unclesLength) }\n\n        offset += unclesLength;\n\n        // Verify the canonical block header using the computed sha3Uncles.\n        assembly {\n            blobLength := and(calldataload(sub(offset, 30)), 0xffff)\n            shift := and(calldataload(sub(offset, 28)), 0xffff)\n        }\n        require (shift + 32 <= blobLength, \"Shift bounds check.\");\n\n        offset += 4;\n        assembly { hashSlot := calldataload(add(offset, shift)) }\n        require (hashSlot == 0, \"Non-empty hash slot.\");\n\n        assembly {\n            calldatacopy(scratchBuf1, offset, blobLength)\n            mstore(add(scratchBuf1, shift), seedHash)\n\n            // At this moment the canonical block hash is known.\n            blockHash := keccak256(scratchBuf1, blobLength)\n        }\n    }\n\n    // Helper to check the placeBet receipt. \"offset\" is the location of the proof beginning in the calldata.\n    // RLP layout: [triePath, str([status, cumGasUsed, bloomFilter, [[address, [topics], data]])]\n    function requireCorrectReceipt(uint offset) view private {\n        uint leafHeaderByte; assembly { leafHeaderByte := byte(0, calldataload(offset)) }\n\n        require (leafHeaderByte >= 0xf7, \"Receipt leaf longer than 55 bytes.\");\n        offset += leafHeaderByte - 0xf6;\n\n        uint pathHeaderByte; assembly { pathHeaderByte := byte(0, calldataload(offset)) }\n\n        if (pathHeaderByte <= 0x7f) {\n            offset += 1;\n\n        } else {\n            require (pathHeaderByte >= 0x80 && pathHeaderByte <= 0xb7, \"Path is an RLP string.\");\n            offset += pathHeaderByte - 0x7f;\n        }\n\n        uint receiptStringHeaderByte; assembly { receiptStringHeaderByte := byte(0, calldataload(offset)) }\n        require (receiptStringHeaderByte == 0xb9, \"Receipt string is always at least 256 bytes long, but less than 64k.\");\n        offset += 3;\n\n        uint receiptHeaderByte; assembly { receiptHeaderByte := byte(0, calldataload(offset)) }\n        require (receiptHeaderByte == 0xf9, \"Receipt is always at least 256 bytes long, but less than 64k.\");\n        offset += 3;\n\n        uint statusByte; assembly { statusByte := byte(0, calldataload(offset)) }\n        require (statusByte == 0x1, \"Status should be success.\");\n        offset += 1;\n\n        uint cumGasHeaderByte; assembly { cumGasHeaderByte := byte(0, calldataload(offset)) }\n        if (cumGasHeaderByte <= 0x7f) {\n            offset += 1;\n\n        } else {\n            require (cumGasHeaderByte >= 0x80 && cumGasHeaderByte <= 0xb7, \"Cumulative gas is an RLP string.\");\n            offset += cumGasHeaderByte - 0x7f;\n        }\n\n        uint bloomHeaderByte; assembly { bloomHeaderByte := byte(0, calldataload(offset)) }\n        require (bloomHeaderByte == 0xb9, \"Bloom filter is always 256 bytes long.\");\n        offset += 256 + 3;\n\n        uint logsListHeaderByte; assembly { logsListHeaderByte := byte(0, calldataload(offset)) }\n        require (logsListHeaderByte == 0xf8, \"Logs list is less than 256 bytes long.\");\n        offset += 2;\n\n        uint logEntryHeaderByte; assembly { logEntryHeaderByte := byte(0, calldataload(offset)) }\n        require (logEntryHeaderByte == 0xf8, \"Log entry is less than 256 bytes long.\");\n        offset += 2;\n\n        uint addressHeaderByte; assembly { addressHeaderByte := byte(0, calldataload(offset)) }\n        require (addressHeaderByte == 0x94, \"Address is 20 bytes long.\");\n\n        uint logAddress; assembly { logAddress := and(calldataload(sub(offset, 11)), 0xffffffffffffffffffffffffffffffffffffffff) }\n        // require (logAddress == uint(address(this)));\n        require (logAddress == uint(uint160(address(this)))); // to adapt with solidity v0.8.0\n    }\n\n    // Memory copy.\n    function memcpy(uint dest, uint src, uint len) pure private {\n        // Full 32 byte words\n        for(; len >= 32; len -= 32) {\n            assembly { mstore(dest, mload(src)) }\n            dest += 32; src += 32;\n        }\n\n        // Remaining bytes\n        uint mask = 256 ** (32 - len) - 1;\n        assembly {\n            let srcpart := and(mload(src), not(mask))\n            let destpart := and(mload(dest), mask)\n            mstore(dest, or(destpart, srcpart))\n        }\n    }\n}",
  "sourcePath": "/data/work/dicegame/contracts/dice2win.sol",
  "compiler": {
    "name": "solc",
    "version": "0.8.0+commit.c7dfd78e.Emscripten.clang"
  },
  "schemaVersion": "3.3.3",
  "updatedAt": "2021-04-19T07:44:09.441Z",
  "devdoc": {
    "kind": "dev",
    "methods": {},
    "version": 1
  },
  "userdoc": {
    "kind": "user",
    "methods": {
      "placeBet(uint256,uint256,uint256,uint256,bytes32,bytes32)": {
        "notice": "*** Betting logic"
      }
    },
    "version": 1
  }
}