{
  "contractName": "EcRecoverTest",
  "abi": [
    {
      "inputs": [],
      "stateMutability": "payable",
      "type": "constructor"
    },
    {
      "inputs": [],
      "name": "testecrecover",
      "outputs": [
        {
          "internalType": "address",
          "name": "",
          "type": "address"
        }
      ],
      "stateMutability": "nonpayable",
      "type": "function"
    },
    {
      "inputs": [],
      "name": "recive",
      "outputs": [],
      "stateMutability": "payable",
      "type": "function"
    }
  ],
  "bytecode": "0x60806040526101cb806100136000396000f3fe6080604052600436106100295760003560e01c806335897cad1461002e57806358abb66814610038575b600080fd5b610036610063565b005b34801561004457600080fd5b5061004d610065565b60405161005a9190610163565b60405180910390f35b565b6040805160008082526020909101918290529073954d1a58c7abd4ac8ebe05f59191cf718eb0cb89907ffa304f485e11dda82b6348fa0ea37393b0788a29cef0ff72b20f8c82356091db907f39173bceaa4bb92ea7965460e8e93707f33b81b7ae9c64345c03ffee4650b70190601b907f20416d2ad9539d47eb81fa50abaeaf37a865389c49d79d885a93cf5dc60c0ec790869060019061010d908490869089908990610177565b6020604051602081039080840390855afa15801561012f573d6000803e3d6000fd5b505050602060405103519050806001600160a01b0316866001600160a01b03161461015957600080fd5b9550505050505090565b6001600160a01b0391909116815260200190565b93845260ff929092166020840152604083015260608201526080019056fea2646970667358221220b2457d01827cf8478cadf71c58d867991a9af5ad9f2b628a3a5e9985cb16cb1e64736f6c63430008000033",
  "immutableReferences": {},
  "source": "pragma solidity >=0.4.24 <0.9.0;\n\n\n\ncontract  EcRecoverTest {\n\n    constructor()  payable{\n        \n    }\n    \n    function testecrecover() public  returns( address ){\n        address  secretSigner =  address(0x954d1a58c7abd4ac8ebe05f59191Cf718eb0cB89);\n        bytes32 R = \"\\xfa\\x30\\x4f\\x48\\x5e\\x11\\xdd\\xa8\\x2b\\x63\\x48\\xfa\\x0e\\xa3\\x73\\x93\\xb0\\x78\\x8a\\x29\\xce\\xf0\\xff\\x72\\xb2\\x0f\\x8c\\x82\\x35\\x60\\x91\\xdb\";\n        bytes32 S = \"\\x39\\x17\\x3b\\xce\\xaa\\x4b\\xb9\\x2e\\xa7\\x96\\x54\\x60\\xe8\\xe9\\x37\\x07\\xf3\\x3b\\x81\\xb7\\xae\\x9c\\x64\\x34\\x5c\\x03\\xff\\xee\\x46\\x50\\xb7\\x01\";\n        uint8 V = 27;\n        bytes32 SH = \"\\x20\\x41\\x6d\\x2a\\xd9\\x53\\x9d\\x47\\xeb\\x81\\xfa\\x50\\xab\\xae\\xaf\\x37\\xa8\\x65\\x38\\x9c\\x49\\xd7\\x9d\\x88\\x5a\\x93\\xcf\\x5d\\xc6\\x0c\\x0e\\xc7\";\n        address bz = ecrecover(SH, V, R, S);\n        require(secretSigner == bz);\n        \n        return bz;\n    }\n\n    function recive() public payable {\n    }\n\n}",
  "sourcePath": "/data/work/dicegame/contracts/ecrecover.sol",
  "compiler": {
    "name": "solc",
    "version": "0.8.0+commit.c7dfd78e.Emscripten.clang"
  },
  "schemaVersion": "3.3.3",
  "updatedAt": "2021-04-19T07:44:09.477Z",
  "devdoc": {
    "kind": "dev",
    "methods": {},
    "version": 1
  },
  "userdoc": {
    "kind": "user",
    "methods": {},
    "version": 1
  }
}