{
  "contractName": "Parent",
  "abi": [
    {
      "inputs": [
        {
          "internalType": "uint256",
          "name": "arg",
          "type": "uint256"
        }
      ],
      "name": "createSon",
      "outputs": [],
      "stateMutability": "payable",
      "type": "function"
    }
  ],
  "bytecode": "0x608060405260046040516100129061006b565b61001c9190610077565b604051809103906000f080158015610038573d6000803e3d6000fd5b50600080546001600160a01b0319166001600160a01b039290921691909117905534801561006557600080fd5b50610080565b60dc8061031b83390190565b90815260200190565b61028c8061008f6000396000f3fe60806040526004361061001e5760003560e01c8063e9e1f97a14610023575b600080fd5b610036610031366004610118565b610038565b005b6000816040516100479061010c565b6100519190610171565b604051809103906000f08015801561006d573d6000803e3d6000fd5b50905081816001600160a01b0316630c55699c6040518163ffffffff1660e01b815260040160206040518083038186803b1580156100aa57600080fd5b505afa1580156100be573d6000803e3d6000fd5b505050506040513d601f19601f820116820180604052508101906100e29190610130565b146101085760405162461bcd60e51b81526004016100ff90610148565b60405180910390fd5b5050565b60dc8061017b83390190565b600060208284031215610129578081fd5b5035919050565b600060208284031215610141578081fd5b5051919050565b6020808252600f908201526e3d3d3d4e4f5420455155414c3d3d3d60881b604082015260600190565b9081526020019056fe60806040526040516100dc3803806100dc8339810160408190526100229161002a565b600055610042565b60006020828403121561003b578081fd5b5051919050565b608c806100506000396000f3fe6080604052348015600f57600080fd5b506004361060285760003560e01c80630c55699c14602d575b600080fd5b60336047565b604051603e9190604d565b60405180910390f35b60005481565b9081526020019056fea26469706673582212204e93d218cfa3a86277780427350da73b3b33e55510b678e5823af346bc41e71164736f6c63430008000033a2646970667358221220625634ffe84bb8758476faadbad0186fe71815095f02ee9a0110fa5206400d9964736f6c6343000800003360806040526040516100dc3803806100dc8339810160408190526100229161002a565b600055610042565b60006020828403121561003b578081fd5b5051919050565b608c806100506000396000f3fe6080604052348015600f57600080fd5b506004361060285760003560e01c80630c55699c14602d575b600080fd5b60336047565b604051603e9190604d565b60405180910390f35b60005481565b9081526020019056fea26469706673582212204e93d218cfa3a86277780427350da73b3b33e55510b678e5823af346bc41e71164736f6c63430008000033",
  "immutableReferences": {},
  "source": "pragma solidity >0.4.99 <0.9.0;\n\ncontract Son {\n    uint public x;\n    constructor(uint a) public payable {\n        x = a;\n    }\n}\n\ncontract Parent {\n    Son son1 = new Son(4); // will be executed as part of C's constructor\n//    Son son2 = new Son(4); // will be executed as part of C's constructor\n//    Son son3 = new Son(4); // will be executed as part of C's constructor\n//    Son son4 = new Son(4); // will be executed as part of C's constructor\n\n    function createSon(uint arg) public payable {\n        Son newSon = new Son(arg);\n        require( newSon.x() == arg, \"===NOT EQUAL===\");\n    }\n\n}",
  "sourcePath": "/data/work/dicegame/contracts/create_contract.sol",
  "compiler": {
    "name": "solc",
    "version": "0.8.0+commit.c7dfd78e.Emscripten.clang"
  },
  "schemaVersion": "3.3.3",
  "updatedAt": "2021-05-08T10:24:58.211Z",
  "devdoc": {
    "kind": "dev",
    "methods": {},
    "version": 1
  },
  "userdoc": {
    "kind": "user",
    "methods": {},
    "version": 1
  }
}