{
  "contractName": "Suicide",
  "abi": [
    {
      "inputs": [],
      "stateMutability": "payable",
      "type": "constructor"
    },
    {
      "stateMutability": "payable",
      "type": "fallback"
    },
    {
      "stateMutability": "payable",
      "type": "receive"
    },
    {
      "inputs": [],
      "name": "kill",
      "outputs": [],
      "stateMutability": "payable",
      "type": "function"
    }
  ],
  "bytecode": "0x6080604052600080546001600160a01b0319163317905560768060236000396000f3fe608060405260043610601f5760003560e01c806341c0e1b5146027576025565b36602557005b005b60256000546001600160a01b0316331415603e5733ff5b56fea2646970667358221220eed9894d3ba98094d8d48a4a6808be89cd7eb93d4a978cf47a2308b4c90afb0864736f6c63430008000033",
  "immutableReferences": {},
  "source": "/*\n\tThe following is an extremely basic example of a solidity contract.\n\tIt takes a string upon creation and then repeats it when greet() is called.\n*/\n\npragma solidity ^0.8.0;\n\n/// @title Greeter\n/// @author Cyrus Adkisson\n// The contract definition. A constructor of the same name will be automatically called on contract creation.\ncontract Suicide {\n\n    // At first, an empty \"address\"-type variable of the name \"creator\". Will be set in the constructor.\n    address creator;\n\n    // The constructor. It accepts a string input and saves it to the contract's \"greeting\" variable.\n    constructor() payable {\n        creator = msg.sender;\n    }\n\n     /**********\n     Standard kill() function to recover funds\n     **********/\n    function kill() public payable {\n        if (msg.sender == creator){\n            selfdestruct( payable(msg.sender));\n        }\n    }\n\n\n    receive() external payable{\n\n    }\n\n    fallback() external payable{\n\n    }\n\n\n}",
  "sourcePath": "/data/work/dicegame/contracts/Suicide.sol",
  "compiler": {
    "name": "solc",
    "version": "0.8.0+commit.c7dfd78e.Emscripten.clang"
  },
  "schemaVersion": "3.3.3",
  "updatedAt": "2021-05-10T10:54:28.459Z",
  "devdoc": {
    "author": "Cyrus Adkisson",
    "kind": "dev",
    "methods": {},
    "title": "Greeter",
    "version": 1
  },
  "userdoc": {
    "kind": "user",
    "methods": {},
    "version": 1
  }
}