{
  "contractName": "OpCodes",
  "abi": [
    {
      "inputs": [],
      "payable": false,
      "stateMutability": "nonpayable",
      "type": "constructor"
    },
    {
      "constant": false,
      "inputs": [],
      "name": "test",
      "outputs": [],
      "payable": false,
      "stateMutability": "nonpayable",
      "type": "function"
    },
    {
      "constant": true,
      "inputs": [],
      "name": "test_revert",
      "outputs": [],
      "payable": false,
      "stateMutability": "pure",
      "type": "function"
    },
    {
      "constant": true,
      "inputs": [],
      "name": "test_invalid",
      "outputs": [],
      "payable": false,
      "stateMutability": "pure",
      "type": "function"
    },
    {
      "constant": true,
      "inputs": [],
      "name": "test_stop",
      "outputs": [],
      "payable": false,
      "stateMutability": "pure",
      "type": "function"
    },
    {
      "constant": true,
      "inputs": [],
      "name": "test_ecrecover",
      "outputs": [
        {
          "internalType": "address",
          "name": "",
          "type": "address"
        }
      ],
      "payable": false,
      "stateMutability": "pure",
      "type": "function"
    }
  ],
  "bytecode": "0x608060405234801561001057600080fd5b5060405161001d9061007e565b604051809103906000f080158015610039573d6000803e3d6000fd5b506000806101000a81548173ffffffffffffffffffffffffffffffffffffffff021916908373ffffffffffffffffffffffffffffffffffffffff16021790555061008b565b610143806106b583390190565b61061b8061009a6000396000f3fe608060405234801561001057600080fd5b50600436106100575760003560e01c806355313dea1461005c5780636d3d141614610066578063aefff86314610070578063b9d1e5aa146100ba578063f8a8fd6d146100c4575b600080fd5b6100646100ce565b005b61006e6100d0565b005b6100786100d5565b604051808273ffffffffffffffffffffffffffffffffffffffff1673ffffffffffffffffffffffffffffffffffffffff16815260200191505060405180910390f35b6100c2610213565b005b6100cc610215565b005b005b600080fd5b60008073954d1a58c7abd4ac8ebe05f59191cf718eb0cb89905060007ffa304f485e11dda82b6348fa0ea37393b0788a29cef0ff72b20f8c82356091db905060007f39173bceaa4bb92ea7965460e8e93707f33b81b7ae9c64345c03ffee4650b70190506000601b905060007f20416d2ad9539d47eb81fa50abaeaf37a865389c49d79d885a93cf5dc60c0ec79050600060018284878760405160008152602001604052604051808581526020018460ff1660ff1681526020018381526020018281526020019450505050506020604051602081039080840390855afa1580156101c3573d6000803e3d6000fd5b5050506020604051035190508073ffffffffffffffffffffffffffffffffffffffff168673ffffffffffffffffffffffffffffffffffffffff161461020757600080fd5b80965050505050505090565bfe5b600160021a6002f35b60058110156102325760018101905061021e565b5060065b600581111561024a57600181019050610236565b5060015b60058112156102625760018101905061024e565b5060065b600581131561027a57600181019050610266565b5060021561028757600051505b60405160208101602060048337505060405160208101602060048339505060405160208101602060048360003c50503660005b818110156102d157600281526001810190506102ba565b505060008020506000602060403e6010608060106040610123612710fa506020610123600af05060008060009054906101000a900473ffffffffffffffffffffffffffffffffffffffff169050600060405180807f697353616d654164647265737328616464726573732c61646472657373290000815250601e01905060405180910390209050600033905060405182815281600482015281602482015260648101604052602081604483600088611388f1505060405182815281600482015281602482015260648101604052602081604483600088611388f250506040518281528160048201528160248201526064810160405260208160448387611388f4505060006242004290507f50cb9fe53daa9737b786ab3646f04d0150dc50ef4e75f59509d83667ad5adb2060001b6040518082815260200191505060405180910390a07f50cb9fe53daa9737b786ab3646f04d0150dc50ef4e75f59509d83667ad5adb2060001b7f50cb9fe53daa9737b786ab3646f04d0150dc50ef4e75f59509d83667ad5adb2060001b6040518082815260200191505060405180910390a13373ffffffffffffffffffffffffffffffffffffffff1660001b7f50cb9fe53daa9737b786ab3646f04d0150dc50ef4e75f59509d83667ad5adb2060001b7f50cb9fe53daa9737b786ab3646f04d0150dc50ef4e75f59509d83667ad5adb2060001b6040518082815260200191505060405180910390a28060001b3373ffffffffffffffffffffffffffffffffffffffff1660001b7f50cb9fe53daa9737b786ab3646f04d0150dc50ef4e75f59509d83667ad5adb2060001b7f50cb9fe53daa9737b786ab3646f04d0150dc50ef4e75f59509d83667ad5adb2060001b6040518082815260200191505060405180910390a38060001b8160001b3373ffffffffffffffffffffffffffffffffffffffff1660001b7f50cb9fe53daa9737b786ab3646f04d0150dc50ef4e75f59509d83667ad5adb2060001b7f50cb9fe53daa9737b786ab3646f04d0150dc50ef4e75f59509d83667ad5adb2060001b6040518082815260200191505060405180910390a46002fffea265627a7a723158209287407da7aed7bb45f155a84ca427119d66608fd632ab8dcbdb1f70eebd9a0464736f6c63430005100032608060405234801561001057600080fd5b50610123806100206000396000f3fe6080604052348015600f57600080fd5b506004361060285760003560e01c8063161e715014602d575b600080fd5b608c60048036036040811015604157600080fd5b81019080803573ffffffffffffffffffffffffffffffffffffffff169060200190929190803573ffffffffffffffffffffffffffffffffffffffff16906020019092919050505060a6565b604051808215151515815260200191505060405180910390f35b60008173ffffffffffffffffffffffffffffffffffffffff168373ffffffffffffffffffffffffffffffffffffffff16141560e3576001905060e8565b600090505b9291505056fea265627a7a72315820dace7e544a31329ee9cac079ad556c603660a7b3d87d8e076f35e2d53fe801f664736f6c63430005100032",
  "source": "pragma solidity >=0.4.21 <0.6.0;\n\n// import \"./ecrecover.sol\";\n\n\n\ncontract Test1 {\n  function isSameAddress(address a, address b) public pure returns(bool){  //Simply add the two arguments and return\n      if (a == b) return true;\n      return false;\n  }\n}\n\ncontract OpCodes {\n\n    Test1 test1;\n    // EcRecoverTest  ecTest;\n\n\n    constructor() public {  //Constructor function\n      test1 = new Test1();  //Create new \"Test1\" function\n    //   ecTest = new EcRecoverTest();\n    }\n\n   modifier onlyOwner(address _owner) {\n      require(msg.sender == _owner);\n      _;\n   }\n   // Add a todo to the list\n   function test()   public {\n\n     //simple_instructions\n     /*assembly { pop(sub(dup1, mul(dup1, dup1))) }*/\n\n     //keywords\n     assembly { pop(address) return(2, byte(2,1)) }\n\n     //label_complex\n     /*assembly { 7 abc: 8 eq jump(abc) jumpi(eq(7, 8), abc) pop }\n     assembly { pop(jumpi(eq(7, 8), abc)) jump(abc) }*/\n\n     //functional\n     /*assembly { let x := 2 add(7, mul(6, x)) mul(7, 8) add =: x }*/\n\n     //for_statement\n     assembly { for { let i := 1 } lt(i, 5) { i := add(i, 1) } {} }\n     assembly { for { let i := 6 } gt(i, 5) { i := add(i, 1) } {} }\n     assembly { for { let i := 1 } slt(i, 5) { i := add(i, 1) } {} }\n     assembly { for { let i := 6 } sgt(i, 5) { i := add(i, 1) } {} }\n\n     //no_opcodes_in_strict\n     assembly { pop(callvalue()) }\n\n     //no_dup_swap_in_strict\n     /*assembly { swap1() }*/\n\n     //print_functional\n     assembly { let x := mul(sload(0x12), 7) }\n\n     //print_if\n     assembly { if 2 { pop(mload(0)) }}\n\n     //function_definitions_multiple_args\n     assembly { function f(a, d){ mstore(a, d) } function g(a, d) -> x, y {}}\n\n     //sstore\n     assembly { function f(a, d){ sstore(a, d) } function g(a, d) -> x, y {}}\n\n     //mstore8\n     assembly { function f(a, d){ mstore8(a, d) } function g(a, d) -> x, y {}}\n\n     //calldatacopy\n     assembly {\n       let a := mload(0x40)\n       let b := add(a, 32)\n       calldatacopy(a, 4, 32)\n       /*calldatacopy(b, add(4, 32), 32)*/\n       /*result := add(mload(a), mload(b))*/\n     }\n\n     //codecopy\n     assembly {\n       let a := mload(0x40)\n       let b := add(a, 32)\n       codecopy(a, 4, 32)\n     }\n\n     //codecopy\n     assembly {\n       let a := mload(0x40)\n       let b := add(a, 32)\n       extcodecopy(0, a, 4, 32)\n     }\n\n     //for_statement\n     assembly { let x := calldatasize() for { let i := 0} lt(i, x) { i := add(i, 1) } { mstore(i, 2) } }\n\n     //keccak256\n     assembly { pop(keccak256(0,0)) }\n\n     //returndatasize\n     assembly { let r := returndatasize }\n\n     //returndatacopy\n     assembly { returndatacopy(64, 32, 0) }\n     //byzantium vs const Constantinople\n     //staticcall\n     assembly { pop(staticcall(10000, 0x123, 64, 0x10, 128, 0x10)) }\n\n     /*//create2 Constantinople\n     assembly { pop(create2(10, 0x123, 32, 64)) }*/\n\n     //create Constantinople\n     assembly { pop(create(10, 0x123, 32)) }\n\n     //shift Constantinople\n     /*assembly { pop(shl(10, 32)) }\n     assembly { pop(shr(10, 32)) }\n     assembly { pop(sar(10, 32)) }*/\n\n\n     //not\n     assembly { pop( not(0x1f)) }\n\n     //exp\n     assembly { pop( exp(2, 226)) }\n\n     //mod\n     assembly { pop( mod(3, 9)) }\n\n     //smod\n     assembly { pop( smod(3, 9)) }\n\n     //div\n     assembly { pop( div(4, 2)) }\n\n     //sdiv\n     assembly { pop( sdiv(4, 2)) }\n\n     //iszero\n     assembly { pop(iszero(1)) }\n\n     //and\n     assembly { pop(and(2,3)) }\n\n     //or\n     assembly { pop(or(3,3)) }\n\n     //xor\n     assembly { pop(xor(3,3)) }\n\n     //addmod\n     assembly { pop(addmod(3,3,6)) }\n\n     //mulmod\n     assembly { pop(mulmod(3,3,3)) }\n\n     //signextend\n     assembly { pop(signextend(1, 10)) }\n\n     //sha3\n     assembly { pop(calldataload(0)) }\n\n     //blockhash\n     assembly { pop(blockhash(sub(number(), 1))) }\n\n     //balance\n     assembly { pop(balance(0x0)) }\n\n     //caller\n     assembly { pop(caller()) }\n\n     //codesize\n     assembly { pop(codesize()) }\n\n     //extcodesize\n     assembly { pop(extcodesize(0x1)) }\n\n     //origin\n     assembly { pop(origin()) }\n\n     //gas\n     assembly {  pop(gas())}\n\n     //msize\n     assembly {  pop(msize())}\n\n     //pc\n     assembly {  pop(pc())}\n\n     //gasprice\n     assembly {  pop(gasprice())}\n\n     //coinbase\n     assembly {  pop(coinbase())}\n\n     //timestamp\n     assembly {  pop(timestamp())}\n\n     //number\n     assembly {  pop(number())}\n\n     //difficulty\n     assembly {  pop(difficulty())}\n\n     //gaslimit\n     assembly {  pop(gaslimit())}\n\n     //call\n     address contractAddr = address(test1);\n     bytes4 sig = bytes4(keccak256(\"isSameAddress(address,address)\")); //Function signature\n     address a = msg.sender;\n\n     assembly {\n         let x := mload(0x40)   //Find empty storage location using \"free memory pointer\"\n         mstore(x,sig) //Place signature at begining of empty storage\n         mstore(add(x,0x04),a) // first address parameter. just after signature\n         mstore(add(x,0x24),a) // 2nd address parameter - first padded. add 32 bytes (not 20 bytes)\n         mstore(0x40,add(x,0x64)) // this is missing in other examples. Set free pointer before function call. so it is used by called function.\n          // new free pointer position after the output values of the called function.\n\n         let success := call(\n                         5000, //5k gas\n                         contractAddr, //To addr\n                         0,    //No wei passed\n                         x,    // Inputs are at location x\n                         0x44, //Inputs size two padded, so 68 bytes\n                         x,    //Store output over input\n                         0x20) //Output is 32 bytes long\n     }\n\n     //callcode\n     assembly {\n         let x := mload(0x40)   //Find empty storage location using \"free memory pointer\"\n         mstore(x,sig) //Place signature at begining of empty storage\n         mstore(add(x,0x04),a) // first address parameter. just after signature\n         mstore(add(x,0x24),a) // 2nd address parameter - first padded. add 32 bytes (not 20 bytes)\n         mstore(0x40,add(x,0x64)) // this is missing in other examples. Set free pointer before function call. so it is used by called function.\n          // new free pointer position after the output values of the called function.\n\n         let success := callcode(\n                         5000, //5k gas\n                         contractAddr, //To addr\n                         0,    //No wei passed\n                         x,    // Inputs are at location x\n                         0x44, //Inputs size two padded, so 68 bytes\n                         x,    //Store output over input\n                         0x20) //Output is 32 bytes long\n     }\n\n     //delegatecall\n     assembly {\n         let x := mload(0x40)   //Find empty storage location using \"free memory pointer\"\n         mstore(x,sig) //Place signature at begining of empty storage\n         mstore(add(x,0x04),a) // first address parameter. just after signature\n         mstore(add(x,0x24),a) // 2nd address parameter - first padded. add 32 bytes (not 20 bytes)\n         mstore(0x40,add(x,0x64)) // this is missing in other examples. Set free pointer before function call. so it is used by called function.\n          // new free pointer position after the output values of the called function.\n\n         let success := delegatecall(\n                         5000, //5k gas\n                         contractAddr, //To addr\n                         x,    // Inputs are at location x\n                         0x44, //Inputs size two padded, so 68 bytes\n                         x,    //Store output over input\n                         0x20) //Output is 32 bytes long\n     }\n\n     uint256 _id = 0x420042;\n\n     //log0\n     log0(\n         bytes32(0x50cb9fe53daa9737b786ab3646f04d0150dc50ef4e75f59509d83667ad5adb20)\n     );\n\n     //log1\n     log1(\n         bytes32(0x50cb9fe53daa9737b786ab3646f04d0150dc50ef4e75f59509d83667ad5adb20),\n         bytes32(0x50cb9fe53daa9737b786ab3646f04d0150dc50ef4e75f59509d83667ad5adb20)\n     );\n\n     //log2\n     log2(\n         bytes32(0x50cb9fe53daa9737b786ab3646f04d0150dc50ef4e75f59509d83667ad5adb20),\n         bytes32(0x50cb9fe53daa9737b786ab3646f04d0150dc50ef4e75f59509d83667ad5adb20),\n         bytes32(uint256(msg.sender))\n     );\n\n     //log3\n     log3(\n         bytes32(0x50cb9fe53daa9737b786ab3646f04d0150dc50ef4e75f59509d83667ad5adb20),\n         bytes32(0x50cb9fe53daa9737b786ab3646f04d0150dc50ef4e75f59509d83667ad5adb20),\n         bytes32(uint256(msg.sender)),\n         bytes32(_id)\n     );\n\n     //log4\n     log4(\n         bytes32(0x50cb9fe53daa9737b786ab3646f04d0150dc50ef4e75f59509d83667ad5adb20),\n         bytes32(0x50cb9fe53daa9737b786ab3646f04d0150dc50ef4e75f59509d83667ad5adb20),\n         bytes32(uint256(msg.sender)),\n         bytes32(_id),\n         bytes32(_id)\n\n     );\n\n     //selfdestruct\n     assembly { selfdestruct(0x02) }\n\n\n    // // ecrecover\n    // address bz = ecTest.testEcrecover();\n    // address secretSigner =  address(0x954d1a58c7abd4ac8ebe05f59191Cf718eb0cB89);\n    // require(secretSigner == bz);\n\n   }\n\n  function test_revert() pure  public {\n\n    //revert\n    assembly{ revert(0, 0) }\n  }\n\n  function test_invalid() pure public {\n\n    //revert\n    assembly{ invalid() }\n  }\n\n  function test_stop() pure public {\n\n    //revert\n    assembly{ stop() }\n  }\n\n\n    ////////////\n    function test_ecrecover() public pure returns( address ){\n        address  secretSigner =  address(0x954d1a58c7abd4ac8ebe05f59191Cf718eb0cB89);\n        bytes32 R = \"\\xfa\\x30\\x4f\\x48\\x5e\\x11\\xdd\\xa8\\x2b\\x63\\x48\\xfa\\x0e\\xa3\\x73\\x93\\xb0\\x78\\x8a\\x29\\xce\\xf0\\xff\\x72\\xb2\\x0f\\x8c\\x82\\x35\\x60\\x91\\xdb\";\n        bytes32 S = \"\\x39\\x17\\x3b\\xce\\xaa\\x4b\\xb9\\x2e\\xa7\\x96\\x54\\x60\\xe8\\xe9\\x37\\x07\\xf3\\x3b\\x81\\xb7\\xae\\x9c\\x64\\x34\\x5c\\x03\\xff\\xee\\x46\\x50\\xb7\\x01\";\n        uint8 V = 27;\n        bytes32 SH = \"\\x20\\x41\\x6d\\x2a\\xd9\\x53\\x9d\\x47\\xeb\\x81\\xfa\\x50\\xab\\xae\\xaf\\x37\\xa8\\x65\\x38\\x9c\\x49\\xd7\\x9d\\x88\\x5a\\x93\\xcf\\x5d\\xc6\\x0c\\x0e\\xc7\";\n        address bz = ecrecover(SH, V, R, S);\n        require(secretSigner == bz);\n        \n        return bz;\n    }\n\n}\n",
  "sourcePath": "/data/work/htdf/tests/opcodes/contracts/OpCodes.sol",
  "compiler": {
    "name": "solc",
    "version": "0.5.16+commit.9c3226ce.Emscripten.clang"
  },
  "schemaVersion": "3.3.3",
  "updatedAt": "2021-04-12T11:25:44.226Z",
  "devdoc": {
    "methods": {}
  },
  "userdoc": {
    "methods": {
      "test_ecrecover()": {
        "notice": "/////////"
      }
    }
  }
}